:020000040000fa
:08000000700f04000000000075
:020000040000fa
:0400080048030000a9
:020000040000fa
:04000c0048030000a5
:020000040000fa
:0400100048030000a1
:020000040000fa
:04001400480300009d
:020000040000fa
:040018004803000099
:020000040000fa
:04001c004803000095
:020000040000fa
:040020004803000091
:020000040000fa
:04002400480300008d
:020000040000fa
:040028004803000089
:020000040000fa
:04002c00d0020000fe
:020000040000fa
:040030004803000081
:020000040000fa
:04003400480300007d
:020000040000fa
:040038004803000079
:020000040000fa
:04003c00f8020000c6
:020000040000fa
:040040004803000071
:020000040000fa
:04004400480300006d
:020000040000fa
:040048004803000069
:020000040000fa
:04004c004803000065
:020000040000fa
:040050004803000061
:020000040000fa
:04005400480300005d
:020000040000fa
:040058004803000059
:020000040000fa
:04005c00b2020000ec
:020000040000fa
:040060004803000051
:020000040000fa
:04006400480300004d
:020000040000fa
:040068004803000049
:020000040000fa
:04006c004803000045
:020000040000fa
:040070004803000041
:020000040000fa
:04007400480300003d
:020000040000fa
:040078004803000039
:020000040000fa
:04007c004803000035
:020000040000fa
:040080004803000031
:020000040000fa
:04008400480300002d
:020000040000fa
:040088004803000029
:020000040000fa
:04008c004803000025
:020000040000fa
:040090004803000021
:020000040000fa
:04009400480300001d
:020000040000fa
:040098004803000019
:020000040000fa
:04009c004803000015
:020000040000fa
:0400a0004803000011
:020000040000fa
:0400a400480300000d
:020000040000fa
:0400a8004803000009
:020000040000fa
:0400ac004803000005
:020000040000fa
:0400b0004803000001
:020000040000fa
:0400b40048030000fd
:020000040000fa
:0400b80048030000f9
:020000040000fa
:0400bc00200300001d
:020000040000fa
:0400c00048030000f1
:020000040000fa
:0400c40048030000ed
:020000040000fa
:0400c80048030000e9
:020000040000fa
:0400cc0048030000e5
:020000040000fa
:0400d00048030000e1
:020000040000fa
:0400d40048030000dd
:020000040000fa
:0400d80048030000d9
:020000040000fa
:0400dc0048030000d5
:020000040000fa
:0400e00048030000d1
:020000040000fa
:0400e40048030000cd
:020000040000fa
:0400e80048030000c9
:020000040000fa
:0400ec0048030000c5
:020000040000fa
:0400f00048030000c1
:020000040000fa
:0400f40048030000bd
:020000040000fa
:0400f80048030000b9
:020000040000fa
:0400fc0048030000b5
:020000040000fa
:0401000048030000b0
:020000040000fa
:0401040048030000ac
:020000040000fa
:0401080048030000a8
:020000040000fa
:04010c0048030000a4
:020000040000fa
:0401100048030000a0
:020000040000fa
:04011400480300009c
:020000040000fa
:040118004803000098
:020000040000fa
:04011c004803000094
:020000040000fa
:040120004803000090
:020000040000fa
:04012400480300008c
:020000040000fa
:040128004803000088
:020000040000fa
:04012c004803000084
:020000040000fa
:040130004803000080
:020000040000fa
:04013400480300007c
:020000040000fa
:040138004803000078
:020000040000fa
:04013c004803000074
:020000040000fa
:040140004803000070
:020000040000fa
:04014400480300006c
:020000040000fa
:040148004803000068
:020000040000fa
:04014c004803000064
:020000040000fa
:040150004803000060
:020000040000fa
:04015400480300005c
:020000040000fa
:040158004803000058
:020000040000fa
:04015c004803000054
:020000040000fa
:040160004803000050
:020000040000fa
:04016400480300004c
:020000040000fa
:040168004803000048
:020000040000fa
:04016c004803000044
:020000040000fa
:040170004803000040
:020000040000fa
:04017400480300003c
:020000040000fa
:040178004803000038
:020000040000fa
:04017c004803000034
:020000040000fa
:040180004803000030
:020000040000fa
:04018400480300002c
:020000040000fa
:040188004803000028
:020000040000fa
:04018c004803000024
:020000040000fa
:040190004803000020
:020000040000fa
:04019400480300001c
:020000040000fa
:040198004803000018
:020000040000fa
:04019c004803000014
:020000040000fa
:0401a0004803000010
:020000040000fa
:0401a400480300000c
:020000040000fa
:0401a8004803000008
:020000040000fa
:0401ac004803000004
:020000040000fa
:0401b0004803000000
:020000040000fa
:0401b40048030000fc
:020000040000fa
:0401b80048030000f8
:020000040000fa
:0401bc0048030000f4
:020000040000fa
:0401c00048030000f0
:020000040000fa
:0401c40048030000ec
:020000040000fa
:0401c80048030000e8
:020000040000fa
:0401cc0048030000e4
:020000040000fa
:0401d00048030000e0
:020000040000fa
:0401d40048030000dc
:020000040000fa
:0401d80048030000d8
:020000040000fa
:0401dc0048030000d4
:020000040000fa
:0401e00048030000d0
:020000040000fa
:0401e40048030000cc
:020000040000fa
:0401e80048030000c8
:020000040000fa
:0401ec0048030000c4
:020000040000fa
:0401f00048030000c0
:020000040000fa
:0401f40048030000bc
:020000040000fa
:0401f80048030000b8
:020000040000fa
:0401fc0048030000b4
:020000040000fa
:0402000048030000af
:020000040000fa
:0402040048030000ab
:020000040000fa
:0402080048030000a7
:020000040000fa
:04020c0048030000a3
:020000040000fa
:04021000480300009f
:020000040000fa
:04021400480300009b
:020000040000fa
:040218004803000097
:020000040000fa
:04021c004803000093
:020000040000fa
:04022000480300008f
:020000040000fa
:04022400480300008b
:020000040000fa
:040228004803000087
:020000040000fa
:04022c004803000083
:020000040000fa
:04023000480300007f
:020000040000fa
:04023400480300007b
:020000040000fa
:040238004803000077
:020000040000fa
:04023c004803000073
:020000040000fa
:04024000480300006f
:020000040000fa
:04024400480300006b
:020000040000fa
:040248004803000067
:020000040000fa
:04024c004803000063
:020000040000fa
:04025000480300005f
:020000040000fa
:04025400480300005b
:020000040000fa
:040258004803000057
:020000040000fa
:04025c004803000053
:020000040000fa
:04026000480300004f
:020000040000fa
:04026400480300004b
:020000040000fa
:040268004803000047
:020000040000fa
:04026c004803000043
:020000040000fa
:04027000480300003f
:020000040000fa
:04027400480300003b
:020000040000fa
:040278004803000037
:020000040000fa
:04027c004803000033
:020000040000fa
:04028000480300002f
:020000040000fa
:10040000a1028800800478000000eb001f00370084
:10041000e284440054a0b4009905ba00e284440088
:1004200054a0b4009906ba00e284440054a0b40079
:100430000006eb00476fde00fd07b200ae0188004a
:10044000636ce10003003a000ad801000000eb00f1
:100450000e003700606ce10008003a00004deb0030
:100460000a05e800020039003420ec000af0a00080
:100470008b05e900f9ff3e00040037006168e100e8
:10048000010032000086eb000b00070019c7ba001c
:100490000e04e0001905ba0003003a000a00e0006b
:1004a000dbff3a0000000600fe07b200ae02880043
:1004b0008a047800f5ff37000cd0a300e20f4d004e
:1004c0001c00390089027800354dba000a05e800a1
:1004d000020039003420ec000af0a0008b05e9008e
:1004e0000f003200254dba000a05e800020039006d
:1004f0003420ec000af0a0008b05e900080032006f
:100500000c00e0000600320015cdba000a05e80034
:10051000020039003420ec000af0a0008b05e9004d
:100520008984e80054a0b4000b00e000e2ff3a0028
:10053000000006009902ba00055d78008b05e9000d
:10054000f7ff3200c82ade00055d78008b05e90060
:10055000f3ff32000c00e000f1ff320019ddba00b9
:10056000eeff370000a0fe003600f800849fbe00ba
:10057000869fbe000000fa0001a8a900ce05070072
:10058000d1000700570007000080fa004f03be00ab
:100590004f02be003600f9000080fe000040060059
:1005a0003600f800809fbe00829fbe00849fbe0080
:1005b000869fbe000000fa000028a900b0888000d5
:1005c000610060000000e00002003200a0040700ab
:1005d000030307000080fa004f03be004f02be0075
:1005e0004f01be004f00be003600f900004006007b
:1005f0003600f800809fbe00829fbe00849fbe0030
:10060000869fbe000000fa0000a8a900b088800004
:10061000610060000000e000020032008c0407006e
:10062000ef0207000080fa004f03be004f02be0039
:100630004f01be004f00be003600f900004006002a
:100640003600f800809fbe00829fbe00849fbe00df
:10065000869fbe000000fa0004a8a900b0888000b0
:10066000610060000000e000020032007804070032
:10067000db0207000080fa004f03be004f02be00fd
:100680004f01be004f00be003600f90000400600da
:0c0690000040da000000fe000000050041
:020000040000fa
:10069c000000fa00c228ef001601070045aea900c1
:1006ac00e4010700803e20004088880000002800fc
:1006bc001046880000000000408880000000e00028
:1006cc00fdff3a0045aea800e1050700bb0207009c
:0806dc0040020700fcff37009b
:020000040000fa
:1006e4000000fa0040102100104078008040e8002b
:1006f400401021000148780040102100104078008b
:10070400f34f50002d003600401021008040eb00d4
:100714000148780031888000803e2000808f50009e
:100724000e003600207280004e00de006140600042
:1007340000c0ea00614060000080fb0061006000ce
:100744004e00dd002172800001e0a1000100700074
:10075400207288000000eb00308888003088800018
:100764000000e80030888800408880000000e00035
:1007740003003200408880000000e90040888800bf
:1007840050102100104078000004e0000500320001
:1007940050102100104078008040e90050102100e2
:1007a40001487800708880000000e00003003200f7
:1007b400708880000000e900708888000080fa00da
:1007c400000006000000fa0010c0b30000f1b700fa
:1007d4000080fa00000006000000fa000071ef003b
:1007e40008000700c0122000c0888800262cef00f3
:1007f400462cef00662cef00458ea8000080fa001e
:10080400000006000000fa0000f02c00e3c1200004
:1008140011322400d2bc2a008209780081097800b0
:100824001061880000f02c00e3c120001132240084
:10083400d2bc2a00820978008109780010628800fd
:1008440000f02c00e3c1200011322400d2bc2a00a5
:100854008209780081097800106388000080fa001a
:10086400000006000000fa0000f42c00e3c12000a0
:1008740011322400d2bc2a00820978008109780050
:100884001061880000f42c00e3c120001132240020
:10089400d2bc2a008209780081097800106288009d
:1008a40000f42c00e3c1200011322400d2bc2a0041
:1008b4008209780081097800106388000080fa00ba
:1008c400000006000000fa00108880000000e0002c
:1008d40003003200108880000000e90010888800be
:1008e40000d1bf000080fb00e10f50000c0032007b
:1008f400e10f500003003c000000e000060032005d
:1009040032003700e30f50000b003200e40f5000b8
:10091400130032002d003700afff07002b00370013
:10092400d0ff0700803e20001088880030c0b3004c
:1009340000f1b70025003700108880000000e000b7
:1009440021003a00afff070078050700bf03070046
:100954002202070040c0b30000f1b7001b003700bb
:10096400308980000000e00014003a0040898000d3
:10097400e10f400006003200408980000000e800da
:100984004089880010898000d08888000b003700d7
:10099400b0888000610060000000e00005003200c3
:1009a4000a11a8000a31a8000a51a9000a71a90075
:1009b400020037000000eb0040898800458ea90042
:1009c4000000000001003700000000000080fa0071
:0409d4000000060019
:020000040000fa
:1009d8000000fa00f0de2f0000708800022eef0001
:1009e800042eef00062eef00082eef000a2eef006f
:1009f8000c2eef003000200070708800f0362000c8
:100a080080708800122eef00142eef00162eef00d3
:100a1800182eef001a2eef001c2eef007010200089
:100a2800f070880070c3270000718800222eef0044
:100a3800242eef00262eef00282eef002a2eef009e
:100a48002c2eef001000200070718800f0ef2f00ae
:100a580080718800322eef00342eef00362eef0022
:100a6800382eef003a2eef003c2eef00f0ff20006a
:100a78000072880000002f001072880000002f000c
:100a880020728800462eef00482eef004a2eef0015
:100a98004c2eef004e2eef000080eb000073880014
:100aa800622eef00642eef00662eef00682eef0036
:100ab8006a2eef006c2eef000080fa00000006009e
:100ac8000000fa0080772700703588006007200052
:100ad800803588000080fa00000006000000fa0057
:100ae80070002000a90007006000200079000700be
:100af8000080fa00000006000000fa00b4ff0700ba
:100b0800efff070007000700940007000f00070029
:100b18005a0007005e000700f0ff07000080fa0097
:100b2800000006000000fa0013e1a90000022000fe
:100b3800900888000a21ef00803e20007008880095
:100b480013e1a8000080fa00000006000000fa0087
:100b580001eca900002cef00022cef000028200077
:100b68000061880000d02c00e3c12000113224006d
:100b7800d2bc2a00820978008109780010618800b7
:100b880030002000e3c1200011322400d2bc2a002a
:100b980082097800810978002061880000772100a7
:100ba80040618800c0122000306188002a2cef00c4
:100bb8002c2cef00342cef00c0122000906188002c
:100bc800002820000062880000d02c00e3c120002b
:100bd80011322400d2bc2a008209780081097800e9
:100be8001062880030002000e3c120001132240088
:100bf800d2bc2a0082097800810978002062880026
:100c08000077210040628800c0122000306288000e
:100c18004a2cef004c2cef000028200000638800cd
:100c280000d02c00e3c1200011322400d2bc2a00dd
:100c3800820978008109780010638800300020005c
:100c4800e3c1200011322400d2bc2a0082097800b6
:100c580081097800206388000077210040638800bc
:100c6800c0122000306388006a2cef006c2cef0063
:100c780001eca8000080fa00000006000000fa005d
:100c8800800c2000105488000080fa000000060044
:100c98000000fa0021e3a900c00120000019880023
:100ca800002020001019880040002000201988002a
:100cb8003223ef002623ef0030302000401988004f
:100cc8002e23ef003023ef0021e3a8000080fa0074
:100cd800000006000200fa00000f780001a8a90031
:100ce8001e00780000407800674060000080fb002c
:100cf800670060004400dd0032428000f1f82f00f8
:100d080081006100010070003042880021a8a8001d
:100d18000080fa00000006000000fa0041e2a90085
:100d28004022ef00e0472000101288004422ef0024
:100d380041e2a8000080fa00000006000000fa0066
:100d48000000230040128800508980006300600082
:100d5800508988000080fa00000006000000fa00b0
:100d680010002000000a88004221ef001000200037
:100d7800400a88004a21ef0010002000800a8800fd
:100d88005221ef000080fa00000006000200fa007d
:100d9800000f78000028a90000a8a90004a8a9004d
:100da8001e00780000407800674060000080fb006b
:100db800670060004400dd0002428000f1f82f0067
:100dc8008100610001007000004288001e00780068
:100dd80000407800674060000080fb00670060000a
:100de8004400dd0012428000f1f82f00810061000c
:100df80001007000104288001e0078000040780052
:100e0800674060000080fb00670060004400dd0070
:100e180092428000f1f82f0081006100010070000b
:100e2800904288002028a80020a8a80024a8a8008c
:100e38000080fa00000006000000fa0010c0b300ad
:0c0e48006b0007000080fa0000000600ac
:020000040000fa
:100e54000000fa00f08b8000f10f500003003e0008
:100e64000ab1a8000a91a90008003700f08b80009d
:100e7400fe0f5000030036000ab1a9000a91a80031
:100e8400020037000ab1a9000a91a9000080fa0003
:100e9400000006000000fa00508880000000e00016
:100ea40002003a001031ef001c003700b0888000c7
:100eb400610060000000e000010032001631a8006b
:100ec400508880006f0060000000e00003003200e2
:100ed40010002000808888001000370050888000af
:100ee400700060000000e0000300320020002000d9
:100ef40080888800090037005188800000022000a3
:100f0400008060000000e000030032003000200098
:100f140080888800010037001031ef00808880004d
:100f2400004078000cf1b7000080fa0000000600d1
:100f34000200fa008188800090888000808f500031
:100f44000500320045eea9001431ef000e31ef0028
:100f54008088800090888800708880000000e0000d
:100f64001c003a00a00f2000708888009088800040
:100f74000000e00017003200a08880000000e800b4
:100f8400a0888800a08880000000d100000f7800ad
:100f9400908880009e0f500008003900a0888000cf
:100fa400610060000000e00002003a0045eea90084
:100fb4000800370045eea80006003700908880003e
:100fc400640040009e0f500001003a001431ef000d
:100fd40045eea8000080fa00000006000000fa00b8
:100fe4009bff0700abff0700d1ff07000080fa005a
:040ff40000000600f3
:020000040000fa
:100ff8000200fa00004f78009e40780061c060004f
:101008000080fb00610060004200dd00b1888000c4
:101018000120a10001007000b08888000071ef0075
:101028001611a9000080fa00000006000000fa006e
:10103800b0888000610060000000e00011003a0004
:10104800508880000000e00018003a00e08b800023
:101058000000e00015003200e089800061006000b7
:101068000000e000110032001611a8005010210005
:1010780021c3b300014878003c11a900d0fd070046
:101088000a003700b0888000620060000000e000bd
:1010980003003a00e08b80000000e00003003a0003
:1010a8001611a9001631a900cafd07000080fa0030
:1010b800000006000200fa00c228ef0050102100cc
:1010c800104078000080fb00000f78000000280026
:1010d8001046880000d1bf00e44f500036003a00a7
:1010e8001e0078000000e00033003a00c228ef003c
:1010f8005010210021c3b3000148780000002800e7
:1011080010468800e18b8000c0888000808f5000e6
:1011180015003900e18b8000c0888000008f5000e6
:10112800400620009e007800808f500004003600a2
:10113800c08880004006b000c08888001e003700c4
:101148001e007800ea0f500004003600c0888000b6
:101158006a004000c088880017003700e08b8000d4
:10116800c088880014003700c1888000e08b8000a8
:10117800008f5000400620009e007800808f5000ad
:1011880004003600c08880004006b100c08888008e
:10119800090037001e007800ea0f500004003600ee
:1011a800c08880006a005000c088880002003700ac
:1011b800e08b8000c08888000080fa0000000600ec
:1011c8000000fa00e901070098ff0700b9ff0700cf
:1011d8000080fa00000006000000fa00c0888000c5
:1011e80030618800c088800030628800c088800034
:1011f80030638800b0888000640060000000e00070
:1012080098003a00d0888000e30f50006600320052
:10121800e30f500005003e00e10f50007800320057
:10122800e20f50004a0032008c003700e50f5000f2
:1012380005003200e50f500019003900e60f500094
:101248002d0032008500370000d02c00e3c12000bb
:1012580011322400d2bc2a00820978008109780062
:101268001061880000f42c00e3c120001132240032
:10127800d2bc2a00820978008109780010628800af
:1012880000f02c00e3c1200011322400d2bc2a0057
:101298008209780081097800106388000801370006
:1012a80000d02c00e3c1200011322400d2bc2a0057
:1012b80082097800810978001061880000f02c000c
:1012c800e3c1200011322400d2bc2a008209780030
:1012d800810978001062880000f42c00e3c1200026
:1012e80011322400d2bc2a008209780081097800d2
:1012f80010638800f200370000f02c00e3c12000e2
:1013080011322400d2bc2a008209780081097800b1
:101318001061880000d02c00e3c1200011322400a5
:10132800d2bc2a00820978008109780010628800fe
:1013380000f42c00e3c1200011322400d2bc2a00a2
:10134800820978008109780010638800dc00370082
:1013580000f42c00e3c1200011322400d2bc2a0082
:1013680082097800810978001061880000d02c007b
:10137800e3c1200011322400d2bc2a00820978007f
:10138800810978001062880000f02c00e3c1200079
:1013980011322400d2bc2a00820978008109780021
:1013a80010638800c600370000f42c00e3c1200059
:1013b80011322400d2bc2a00820978008109780001
:1013c8001061880000f02c00e3c1200011322400d5
:1013d800d2bc2a008209780081097800106288004e
:1013e80000d02c00e3c1200011322400d2bc2a0016
:1013f800820978008109780010638800b0003700fe
:1014080000f02c00e3c1200011322400d2bc2a00d5
:1014180082097800810978001061880000f42c00a6
:10142800e3c1200011322400d2bc2a0082097800ce
:10143800810978001062880000d02c00e3c12000e8
:1014480011322400d2bc2a00820978008109780070
:10145800106388000000000099003700e8fc0700ce
:1014680097003700d0888000e30f50002400320036
:10147800e30f500005003e00e10f50003600320037
:10148800e20f5000080032008b003700e50f5000d3
:1014980047003200e50f50005b003900e60f5000ae
:1014a8006f0032008400370000d02c00e3c1200018
:1014b80011322400d2bc2a00820978008109780000
:1014c8001061880000f42c00e3c1200011322400d0
:1014d800d2bc2a008209780081097800106288004d
:1014e80000f02c00e3c1200011322400d2bc2a00f5
:1014f800820978008109780010638800700037003d
:1015080000d02c00e3c1200011322400d2bc2a00f4
:1015180082097800810978001061880000f02c00a9
:10152800e3c1200011322400d2bc2a0082097800cd
:10153800810978001062880000f42c00e3c12000c3
:1015480011322400d2bc2a0082097800810978006f
:10155800106388005a00370000f02c00e3c1200017
:1015680011322400d2bc2a0082097800810978004f
:101578001061880000d02c00e3c120001132240043
:10158800d2bc2a008209780081097800106288009c
:1015980000f42c00e3c1200011322400d2bc2a0040
:1015a80082097800810978001063880044003700b8
:1015b80000f42c00e3c1200011322400d2bc2a0020
:1015c80082097800810978001061880000d02c0019
:1015d800e3c1200011322400d2bc2a00820978001d
:1015e800810978001062880000f02c00e3c1200017
:1015f80011322400d2bc2a008209780081097800bf
:10160800106388002e00370000f42c00e3c120008e
:1016180011322400d2bc2a0082097800810978009e
:101628001061880000f02c00e3c120001132240072
:10163800d2bc2a00820978008109780010628800eb
:1016480000d02c00e3c1200011322400d2bc2a00b3
:101658008209780081097800106388001800370033
:1016680000f02c00e3c1200011322400d2bc2a0073
:1016780082097800810978001061880000f42c0044
:10168800e3c1200011322400d2bc2a00820978006c
:10169800810978001062880000d02c00e3c1200086
:1016a80011322400d2bc2a0082097800810978000e
:1016b800106388000200370051fc0700000000009a
:0816c8000080fa00000006009a
:020000040000fa
:1016d0000400fa0050c0b300104798000040eb002f
:1016e000004f78000000eb00100798001073800096
:1016f0004800de00614060000080fb006100600087
:101700004200dd009e0090000120a1000100700059
:1017100010079800107380004700de0061406000f1
:101720000080fb0061006000000040009e0090000f
:101730000110a100010070001007980010738000d4
:101740004600de00614060000080fb006100600038
:101750009e0090000100a100010070001007980099
:101760001e80fb009e00900000014000c01121007f
:1017700000004100010878001e4fe8001e4078007c
:10178000e24f5000d7ff36001e4090000040e900b5
:10179000104798001e4090000004e00005003a0049
:1017a0000a11a8000a31a9000a51a9000a71a9006a
:1017b00004003700e18880001e009000808f5000f8
:1017c000c6ff3a001e009000208988002189800011
:1017d00010898000808f50000f0032002089800027
:1017e00010898800208980000000e0000600320097
:1017f00020898000e60f500003003e00100020000a
:1018000030898800040037000a11a9000a31a800b5
:101810000a51a9000a71a9000080fa000000060020
:101820000000fa00308980000000e000060032006d
:101830000000eb00308988000000eb004089880040
:1018400020898000d08888000080fa00000006000f
:101850000000fa009eff0700f1ff07000080fa0079
:04186000000006007e
:020000040000fa
:101864000000fa0045eea900207280004f00de005f
:10187400004078000080fb00610060004e00dd0045
:101884002172800001e0a100010070002072880034
:10189400207280004e00de00614060000080fb008a
:1018a400610060004d00dd002172800001d0a100c4
:1018b4000100700020728800207280004d00de005c
:1018c400614060000080fb00610060004c00dd00ae
:1018d4002172800001c0a100010070002072880004
:1018e4000080fa00000006000000fa0045eea8009f
:1018f400207280004f00de00004078000080fb0072
:10190400610060004e00dd002172800001e0a10052
:101914000100700020728800207280004e00de00fa
:10192400614060000080fb00610060004d00dd004c
:101934002172800001d0a100010070002072880093
:10194400207280004d00de00614060000080fb00da
:10195400610060004c00dd002172800001c0a10024
:1019640001007000207288000080fa000000060068
:020000040000fa
:101974000000fa0010718000620060000000e000c6
:1019840008003a00690107001071800062006000dd
:101994000000e00008003a0010c0b30000f0b700f7
:1019a4000500370000d0bf00e14f500002003a00ac
:1019b4000070ef003c11a8000080fa00000006004f
:020000040000fa
:1019c4000000fa00308b80004200dd00a08988000e
:1019d400808b80004200dd00b0898800908a8000fe
:1019e4004200dd00c0898800e08a80004200dd00fa
:1019f400d0898800a089800060898800b08980002f
:101a040070898800c089800080898800d08980001e
:101a1400908988000080fa00000006000200fa00a5
:101a240000128000620060000000e00043003a0001
:101a3400e3ff0700508980000000e80080004000b8
:101a4400a012210000804000100f7800f0ff200059
:101a54001e0f6000000023001e0f700050898000dc
:101a6400e10f500010003200e10f50000500390072
:101a7400e20f500016003200e30f50001d00320048
:101a840026003700350ea800052ea900000000002e
:101a94000000000000000000000000000000000042
:101aa400000000001d003700052ea8000000000003
:101ab4000000000000000000000000000000000022
:101ac40000000000052ea9001ef0a000130037003e
:101ad400052ea800350ea90000000000000000003b
:101ae40000000000000000000000000000000000f2
:101af4000a003700350ea8000000000000000000b6
:101b040000000000000000000000000000000000d1
:101b1400350ea9001ef0a000000000009e00780011
:101b240041128800508980000000e8005089880034
:101b34005089800063006000508988000080fa00aa
:041b44000000060097
:020000040000fa
:101b48000600fa00000f7800110798002207980095
:101b58001e007800e90f5000060036001e007800cd
:101b6800a1052000810f500003003600a0052000c9
:101b780001003700a0002000000f78001e00900030
:101b8800e90f5000060036001e009000a105200055
:101b9800810f500003003600a00520000100370027
:101ba800a0002000100798002e009000e90f5000b8
:101bb800060036002e009000a1052000810f50007d
:101bc80003003600a005200001003700a000200017
:101bd800200798009e007800c00320008088b90084
:101be800306188009e009000c00320008088b90002
:101bf80030628800ae009000c00320008088b900e1
:0c1c0800306388000080fa000000060035
:020000040000fa
:101c14000000fa00018b8000e08a80000080400010
:101c2400008b8800108b80000000e800108b880077
:101c3400118b8000f0032000808f500007003600d5
:101c4400008b80004600de00f08a88000000eb0074
:101c5400008b88000000eb00108b88000080fa00e5
:101c6400000006000000fa00518b8000308b8000d9
:101c740000804000508b8800608b80000000e800ea
:101c8400608b8800608b8000e70f500007003600ef
:101c9400508b80004300de00408b88000000eb0086
:101ca400508b88000000eb00608b88000080fa00f5
:101cb400000006000000fa00d08b8000e40f500002
:101cc40012003200e60f50001e003200e30f5000f5
:101cd40029003a0000188000e08a8800101880006b
:101ce400f089880020188000408a8800301880001d
:101cf400908a8800c6ff07004040200040198800f1
:101d040040002000d08b8800270037000018800096
:101d1400308b880010188000f0898800201880001b
:101d2400408a880030188000908a8800cdff070020
:101d3400606020004019880060002000d08b88007b
:101d44001900370000188000808b8800101880006c
:101d5400f089880020188000408a880030188000ac
:101d6400908a88003030200040198800300020001c
:101d7400d08b88000c00370000188000e08a8800af
:101d840010188000f089880020188000408a88009c
:101d940030188000908a8800404020004019880054
:101da40040002000d08b88000080fa00000006006c
:101db4000400fa00f18a8000500320000100b800fa
:101dc400008fbe001e0078009e0090004609dd00d2
:101dd4004a00de0000007100ca08de00008fbe0069
:101de4001e007800f08b88000080fa0000000600d6
:101df4000600fa00408b80004600dd00000f7800ea
:101e0400007721001e0178000010b8001007980028
:101e140021079800ae009000010f7800b012200056
:101e24009e007800808f500003003e000000eb000d
:101e3400e08b8800060037001e007800017721003f
:101e4400810f50000100360000772100e08b8800ec
:101e54000080fa00000006000000fa00e4ff07001a
:0c1e6400d3ff07000080fa000000060019
:020000040000fa
:101e70003c11000002000000800000000010000083
:101e800002000000800000003e110000420000003f
:101e9000800000002a1100001200000080000000f5
:101ea0000411000006000000800000000011000086
:101eb00004000000800000000a1100000c00000077
:101ec00080000000161100000600000080000000e5
:101ed0001c1100000e000000800000000000000047
:020000040000fa
:101ee000310020000000eb000000e900feff3a0096
:101ef0008100e900fbff3a000f052100800f21005f
:101f00000001880000002000203a880060022000c4
:101f1000303a880000002100010025000018eb0085
:101f200001016800fdff3a004e03040000000000bc
:020000040000fa
:101f3000210020000000eb000000e900feff3a0055
:0c1f40008100e900fbff3a0000000600f1
:020000040000fa
:020000040002f8
:04afe000ceff0000a0
:020000040000fa
:020000040002f8
:04afe400ffff00006b
:020000040000fa
:020000040002f8
:04afe8007fff0000e7
:020000040000fa
:020000040002f8
:04afec009eff0000c4
:020000040000fa
:020000040002f8
:04aff0007bff0000e3
:020000040000fa
:020000040002f8
:04aff400ffffff005c
:00000001FF
